{
  "_format": "hh-sol-artifact-1",
  "contractName": "Transactions",
  "sourceName": "contracts/Transactions.sol",
  "abi": [
    {
      "inputs": [
        {
          "internalType": "address payable",
          "name": "seller",
          "type": "address"
        },
        {
          "internalType": "address",
          "name": "buyer",
          "type": "address"
        },
        {
          "internalType": "uint256",
          "name": "tokens",
          "type": "uint256"
        }
      ],
      "name": "createTransaction",
      "outputs": [],
      "stateMutability": "payable",
      "type": "function"
    },
    {
      "inputs": [
        {
          "internalType": "address",
          "name": "user",
          "type": "address"
        }
      ],
      "name": "getUserTransactions",
      "outputs": [
        {
          "components": [
            {
              "internalType": "address",
              "name": "seller",
              "type": "address"
            },
            {
              "internalType": "address",
              "name": "buyer",
              "type": "address"
            },
            {
              "internalType": "uint256",
              "name": "cost",
              "type": "uint256"
            },
            {
              "internalType": "uint256",
              "name": "tokens",
              "type": "uint256"
            },
            {
              "internalType": "uint256",
              "name": "timestamp",
              "type": "uint256"
            }
          ],
          "internalType": "struct Transactions.Transaction[]",
          "name": "",
          "type": "tuple[]"
        }
      ],
      "stateMutability": "view",
      "type": "function"
    },
    {
      "inputs": [
        {
          "internalType": "uint256",
          "name": "",
          "type": "uint256"
        }
      ],
      "name": "transactions",
      "outputs": [
        {
          "internalType": "address",
          "name": "seller",
          "type": "address"
        },
        {
          "internalType": "address",
          "name": "buyer",
          "type": "address"
        },
        {
          "internalType": "uint256",
          "name": "cost",
          "type": "uint256"
        },
        {
          "internalType": "uint256",
          "name": "tokens",
          "type": "uint256"
        },
        {
          "internalType": "uint256",
          "name": "timestamp",
          "type": "uint256"
        }
      ],
      "stateMutability": "view",
      "type": "function"
    }
  ],
  "bytecode": "0x6080604052348015600f57600080fd5b50610b418061001f6000396000f3fe6080604052600436106100345760003560e01c80630b826afa146100395780639ace38c214610055578063ef92539914610096575b600080fd5b610053600480360381019061004e91906107c1565b6100d3565b005b34801561006157600080fd5b5061007c60048036038101906100779190610814565b61024b565b60405161008d95949392919061085f565b60405180910390f35b3480156100a257600080fd5b506100bd60048036038101906100b891906108b2565b6102d1565b6040516100ca9190610a14565b60405180910390f35b60006040518060a001604052808573ffffffffffffffffffffffffffffffffffffffff1681526020018473ffffffffffffffffffffffffffffffffffffffff16815260200134815260200183815260200142815250908060018154018082558091505060019003906000526020600020906005020160009091909190915060008201518160000160006101000a81548173ffffffffffffffffffffffffffffffffffffffff021916908373ffffffffffffffffffffffffffffffffffffffff16021790555060208201518160010160006101000a81548173ffffffffffffffffffffffffffffffffffffffff021916908373ffffffffffffffffffffffffffffffffffffffff16021790555060408201518160020155606082015181600301556080820151816004015550508273ffffffffffffffffffffffffffffffffffffffff166108fc349081150290604051600060405180830381858888f19350505050158015610245573d6000803e3d6000fd5b50505050565b6000818154811061025b57600080fd5b90600052602060002090600502016000915090508060000160009054906101000a900473ffffffffffffffffffffffffffffffffffffffff16908060010160009054906101000a900473ffffffffffffffffffffffffffffffffffffffff16908060020154908060030154908060040154905085565b60606000805b6000805490508110156103f4578373ffffffffffffffffffffffffffffffffffffffff166000828154811061030f5761030e610a36565b5b906000526020600020906005020160000160009054906101000a900473ffffffffffffffffffffffffffffffffffffffff1673ffffffffffffffffffffffffffffffffffffffff1614806103d357508373ffffffffffffffffffffffffffffffffffffffff166000828154811061038957610388610a36565b5b906000526020600020906005020160010160009054906101000a900473ffffffffffffffffffffffffffffffffffffffff1673ffffffffffffffffffffffffffffffffffffffff16145b156103e75781806103e390610a94565b9250505b80806001019150506102d7565b5060008167ffffffffffffffff81111561041157610410610adc565b5b60405190808252806020026020018201604052801561044a57816020015b61043761068f565b81526020019060019003908161042f5790505b5090506000805b600080549050811015610683578573ffffffffffffffffffffffffffffffffffffffff166000828154811061048957610488610a36565b5b906000526020600020906005020160000160009054906101000a900473ffffffffffffffffffffffffffffffffffffffff1673ffffffffffffffffffffffffffffffffffffffff16148061054d57508573ffffffffffffffffffffffffffffffffffffffff166000828154811061050357610502610a36565b5b906000526020600020906005020160010160009054906101000a900473ffffffffffffffffffffffffffffffffffffffff1673ffffffffffffffffffffffffffffffffffffffff16145b15610676576000818154811061056657610565610a36565b5b90600052602060002090600502016040518060a00160405290816000820160009054906101000a900473ffffffffffffffffffffffffffffffffffffffff1673ffffffffffffffffffffffffffffffffffffffff1673ffffffffffffffffffffffffffffffffffffffff1681526020016001820160009054906101000a900473ffffffffffffffffffffffffffffffffffffffff1673ffffffffffffffffffffffffffffffffffffffff1673ffffffffffffffffffffffffffffffffffffffff168152602001600282015481526020016003820154815260200160048201548152505083838151811061065c5761065b610a36565b5b6020026020010181905250818061067290610a94565b9250505b8080600101915050610451565b50819350505050919050565b6040518060a00160405280600073ffffffffffffffffffffffffffffffffffffffff168152602001600073ffffffffffffffffffffffffffffffffffffffff1681526020016000815260200160008152602001600081525090565b600080fd5b600073ffffffffffffffffffffffffffffffffffffffff82169050919050565b600061071a826106ef565b9050919050565b61072a8161070f565b811461073557600080fd5b50565b60008135905061074781610721565b92915050565b6000610758826106ef565b9050919050565b6107688161074d565b811461077357600080fd5b50565b6000813590506107858161075f565b92915050565b6000819050919050565b61079e8161078b565b81146107a957600080fd5b50565b6000813590506107bb81610795565b92915050565b6000806000606084860312156107da576107d96106ea565b5b60006107e886828701610738565b93505060206107f986828701610776565b925050604061080a868287016107ac565b9150509250925092565b60006020828403121561082a576108296106ea565b5b6000610838848285016107ac565b91505092915050565b61084a8161074d565b82525050565b6108598161078b565b82525050565b600060a0820190506108746000830188610841565b6108816020830187610841565b61088e6040830186610850565b61089b6060830185610850565b6108a86080830184610850565b9695505050505050565b6000602082840312156108c8576108c76106ea565b5b60006108d684828501610776565b91505092915050565b600081519050919050565b600082825260208201905092915050565b6000819050602082019050919050565b6109148161074d565b82525050565b6109238161078b565b82525050565b60a08201600082015161093f600085018261090b565b506020820151610952602085018261090b565b506040820151610965604085018261091a565b506060820151610978606085018261091a565b50608082015161098b608085018261091a565b50505050565b600061099d8383610929565b60a08301905092915050565b6000602082019050919050565b60006109c1826108df565b6109cb81856108ea565b93506109d6836108fb565b8060005b83811015610a075781516109ee8882610991565b97506109f9836109a9565b9250506001810190506109da565b5085935050505092915050565b60006020820190508181036000830152610a2e81846109b6565b905092915050565b7f4e487b7100000000000000000000000000000000000000000000000000000000600052603260045260246000fd5b7f4e487b7100000000000000000000000000000000000000000000000000000000600052601160045260246000fd5b6000610a9f8261078b565b91507fffffffffffffffffffffffffffffffffffffffffffffffffffffffffffffffff8203610ad157610ad0610a65565b5b600182019050919050565b7f4e487b7100000000000000000000000000000000000000000000000000000000600052604160045260246000fdfea26469706673582212205e759c077c516d6cb0ed8a8637f08cf4573cc8be772358c7d8b63e55442fea5164736f6c634300081c0033",
  "linkReferences": {},
  "deployedLinkReferences": {}
}